{
  "_format": "hh-sol-artifact-1",
  "contractName": "PharosRussia",
  "sourceName": "contracts/PharosRussia.sol",
  "abi": [
    {
      "inputs": [],
      "stateMutability": "nonpayable",
      "type": "constructor"
    },
    {
      "inputs": [
        {
          "internalType": "address",
          "name": "sender",
          "type": "address"
        },
        {
          "internalType": "uint256",
          "name": "tokenId",
          "type": "uint256"
        },
        {
          "internalType": "address",
          "name": "owner",
          "type": "address"
        }
      ],
      "name": "ERC721IncorrectOwner",
      "type": "error"
    },
    {
      "inputs": [
        {
          "internalType": "address",
          "name": "operator",
          "type": "address"
        },
        {
          "internalType": "uint256",
          "name": "tokenId",
          "type": "uint256"
        }
      ],
      "name": "ERC721InsufficientApproval",
      "type": "error"
    },
    {
      "inputs": [
        {
          "internalType": "address",
          "name": "approver",
          "type": "address"
        }
      ],
      "name": "ERC721InvalidApprover",
      "type": "error"
    },
    {
      "inputs": [
        {
          "internalType": "address",
          "name": "operator",
          "type": "address"
        }
      ],
      "name": "ERC721InvalidOperator",
      "type": "error"
    },
    {
      "inputs": [
        {
          "internalType": "address",
          "name": "owner",
          "type": "address"
        }
      ],
      "name": "ERC721InvalidOwner",
      "type": "error"
    },
    {
      "inputs": [
        {
          "internalType": "address",
          "name": "receiver",
          "type": "address"
        }
      ],
      "name": "ERC721InvalidReceiver",
      "type": "error"
    },
    {
      "inputs": [
        {
          "internalType": "address",
          "name": "sender",
          "type": "address"
        }
      ],
      "name": "ERC721InvalidSender",
      "type": "error"
    },
    {
      "inputs": [
        {
          "internalType": "uint256",
          "name": "tokenId",
          "type": "uint256"
        }
      ],
      "name": "ERC721NonexistentToken",
      "type": "error"
    },
    {
      "inputs": [
        {
          "internalType": "address",
          "name": "owner",
          "type": "address"
        }
      ],
      "name": "OwnableInvalidOwner",
      "type": "error"
    },
    {
      "inputs": [
        {
          "internalType": "address",
          "name": "account",
          "type": "address"
        }
      ],
      "name": "OwnableUnauthorizedAccount",
      "type": "error"
    },
    {
      "anonymous": false,
      "inputs": [
        {
          "indexed": true,
          "internalType": "address",
          "name": "owner",
          "type": "address"
        },
        {
          "indexed": true,
          "internalType": "address",
          "name": "approved",
          "type": "address"
        },
        {
          "indexed": true,
          "internalType": "uint256",
          "name": "tokenId",
          "type": "uint256"
        }
      ],
      "name": "Approval",
      "type": "event"
    },
    {
      "anonymous": false,
      "inputs": [
        {
          "indexed": true,
          "internalType": "address",
          "name": "owner",
          "type": "address"
        },
        {
          "indexed": true,
          "internalType": "address",
          "name": "operator",
          "type": "address"
        },
        {
          "indexed": false,
          "internalType": "bool",
          "name": "approved",
          "type": "bool"
        }
      ],
      "name": "ApprovalForAll",
      "type": "event"
    },
    {
      "anonymous": false,
      "inputs": [
        {
          "indexed": true,
          "internalType": "address",
          "name": "minter",
          "type": "address"
        },
        {
          "indexed": true,
          "internalType": "uint256",
          "name": "tokenId",
          "type": "uint256"
        }
      ],
      "name": "Minted",
      "type": "event"
    },
    {
      "anonymous": false,
      "inputs": [
        {
          "indexed": true,
          "internalType": "address",
          "name": "previousOwner",
          "type": "address"
        },
        {
          "indexed": true,
          "internalType": "address",
          "name": "newOwner",
          "type": "address"
        }
      ],
      "name": "OwnershipTransferred",
      "type": "event"
    },
    {
      "anonymous": false,
      "inputs": [
        {
          "indexed": true,
          "internalType": "address",
          "name": "from",
          "type": "address"
        },
        {
          "indexed": true,
          "internalType": "address",
          "name": "to",
          "type": "address"
        },
        {
          "indexed": true,
          "internalType": "uint256",
          "name": "tokenId",
          "type": "uint256"
        }
      ],
      "name": "Transfer",
      "type": "event"
    },
    {
      "inputs": [],
      "name": "MAX_SUPPLY",
      "outputs": [
        {
          "internalType": "uint256",
          "name": "",
          "type": "uint256"
        }
      ],
      "stateMutability": "view",
      "type": "function"
    },
    {
      "inputs": [],
      "name": "MINT_PRICE",
      "outputs": [
        {
          "internalType": "uint256",
          "name": "",
          "type": "uint256"
        }
      ],
      "stateMutability": "view",
      "type": "function"
    },
    {
      "inputs": [
        {
          "internalType": "address",
          "name": "to",
          "type": "address"
        },
        {
          "internalType": "uint256",
          "name": "tokenId",
          "type": "uint256"
        }
      ],
      "name": "approve",
      "outputs": [],
      "stateMutability": "nonpayable",
      "type": "function"
    },
    {
      "inputs": [
        {
          "internalType": "address",
          "name": "owner",
          "type": "address"
        }
      ],
      "name": "balanceOf",
      "outputs": [
        {
          "internalType": "uint256",
          "name": "",
          "type": "uint256"
        }
      ],
      "stateMutability": "view",
      "type": "function"
    },
    {
      "inputs": [
        {
          "internalType": "uint256",
          "name": "tokenId",
          "type": "uint256"
        }
      ],
      "name": "getApproved",
      "outputs": [
        {
          "internalType": "address",
          "name": "",
          "type": "address"
        }
      ],
      "stateMutability": "view",
      "type": "function"
    },
    {
      "inputs": [
        {
          "internalType": "address",
          "name": "owner",
          "type": "address"
        },
        {
          "internalType": "address",
          "name": "operator",
          "type": "address"
        }
      ],
      "name": "isApprovedForAll",
      "outputs": [
        {
          "internalType": "bool",
          "name": "",
          "type": "bool"
        }
      ],
      "stateMutability": "view",
      "type": "function"
    },
    {
      "inputs": [
        {
          "internalType": "uint256",
          "name": "quantity",
          "type": "uint256"
        }
      ],
      "name": "mint",
      "outputs": [],
      "stateMutability": "payable",
      "type": "function"
    },
    {
      "inputs": [],
      "name": "name",
      "outputs": [
        {
          "internalType": "string",
          "name": "",
          "type": "string"
        }
      ],
      "stateMutability": "view",
      "type": "function"
    },
    {
      "inputs": [],
      "name": "owner",
      "outputs": [
        {
          "internalType": "address",
          "name": "",
          "type": "address"
        }
      ],
      "stateMutability": "view",
      "type": "function"
    },
    {
      "inputs": [
        {
          "internalType": "uint256",
          "name": "tokenId",
          "type": "uint256"
        }
      ],
      "name": "ownerOf",
      "outputs": [
        {
          "internalType": "address",
          "name": "",
          "type": "address"
        }
      ],
      "stateMutability": "view",
      "type": "function"
    },
    {
      "inputs": [],
      "name": "renounceOwnership",
      "outputs": [],
      "stateMutability": "nonpayable",
      "type": "function"
    },
    {
      "inputs": [
        {
          "internalType": "address",
          "name": "from",
          "type": "address"
        },
        {
          "internalType": "address",
          "name": "to",
          "type": "address"
        },
        {
          "internalType": "uint256",
          "name": "tokenId",
          "type": "uint256"
        }
      ],
      "name": "safeTransferFrom",
      "outputs": [],
      "stateMutability": "nonpayable",
      "type": "function"
    },
    {
      "inputs": [
        {
          "internalType": "address",
          "name": "from",
          "type": "address"
        },
        {
          "internalType": "address",
          "name": "to",
          "type": "address"
        },
        {
          "internalType": "uint256",
          "name": "tokenId",
          "type": "uint256"
        },
        {
          "internalType": "bytes",
          "name": "data",
          "type": "bytes"
        }
      ],
      "name": "safeTransferFrom",
      "outputs": [],
      "stateMutability": "nonpayable",
      "type": "function"
    },
    {
      "inputs": [
        {
          "internalType": "address",
          "name": "operator",
          "type": "address"
        },
        {
          "internalType": "bool",
          "name": "approved",
          "type": "bool"
        }
      ],
      "name": "setApprovalForAll",
      "outputs": [],
      "stateMutability": "nonpayable",
      "type": "function"
    },
    {
      "inputs": [
        {
          "internalType": "string",
          "name": "newBaseURI",
          "type": "string"
        }
      ],
      "name": "setBaseURI",
      "outputs": [],
      "stateMutability": "nonpayable",
      "type": "function"
    },
    {
      "inputs": [
        {
          "internalType": "bytes4",
          "name": "interfaceId",
          "type": "bytes4"
        }
      ],
      "name": "supportsInterface",
      "outputs": [
        {
          "internalType": "bool",
          "name": "",
          "type": "bool"
        }
      ],
      "stateMutability": "view",
      "type": "function"
    },
    {
      "inputs": [],
      "name": "symbol",
      "outputs": [
        {
          "internalType": "string",
          "name": "",
          "type": "string"
        }
      ],
      "stateMutability": "view",
      "type": "function"
    },
    {
      "inputs": [
        {
          "internalType": "uint256",
          "name": "tokenId",
          "type": "uint256"
        }
      ],
      "name": "tokenURI",
      "outputs": [
        {
          "internalType": "string",
          "name": "",
          "type": "string"
        }
      ],
      "stateMutability": "view",
      "type": "function"
    },
    {
      "inputs": [],
      "name": "totalMinted",
      "outputs": [
        {
          "internalType": "uint256",
          "name": "",
          "type": "uint256"
        }
      ],
      "stateMutability": "view",
      "type": "function"
    },
    {
      "inputs": [
        {
          "internalType": "address",
          "name": "from",
          "type": "address"
        },
        {
          "internalType": "address",
          "name": "to",
          "type": "address"
        },
        {
          "internalType": "uint256",
          "name": "tokenId",
          "type": "uint256"
        }
      ],
      "name": "transferFrom",
      "outputs": [],
      "stateMutability": "nonpayable",
      "type": "function"
    },
    {
      "inputs": [
        {
          "internalType": "address",
          "name": "newOwner",
          "type": "address"
        }
      ],
      "name": "transferOwnership",
      "outputs": [],
      "stateMutability": "nonpayable",
      "type": "function"
    },
    {
      "inputs": [
        {
          "internalType": "address payable",
          "name": "to",
          "type": "address"
        }
      ],
      "name": "withdraw",
      "outputs": [],
      "stateMutability": "nonpayable",
      "type": "function"
    }
  ],
  "bytecode": "0x60806040523480156200001157600080fd5b50336040518060400160405280600d81526020016c506861726f732052757373696160981b815250604051806040016040528060048152602001635048525560e01b8152508160009081620000679190620001b1565b506001620000768282620001b1565b5050506001600160a01b038116620000a857604051631e4fbdf760e01b81526000600482015260240160405180910390fd5b620000b381620000ba565b506200027d565b600680546001600160a01b038381166001600160a01b0319831681179093556040519116919082907f8be0079c531659141344cd1fd0a4f28419497f9722a3daafe3b4186f6b6457e090600090a35050565b634e487b7160e01b600052604160045260246000fd5b600181811c908216806200013757607f821691505b6020821081036200015857634e487b7160e01b600052602260045260246000fd5b50919050565b601f821115620001ac57600081815260208120601f850160051c81016020861015620001875750805b601f850160051c820191505b81811015620001a85782815560010162000193565b5050505b505050565b81516001600160401b03811115620001cd57620001cd6200010c565b620001e581620001de845462000122565b846200015e565b602080601f8311600181146200021d5760008415620002045750858301515b600019600386901b1c1916600185901b178555620001a8565b600085815260208120601f198616915b828110156200024e578886015182559484019460019091019084016200022d565b50858210156200026d5787850151600019600388901b60f8161c191681555b5050505050600190811b01905550565b611688806200028d6000396000f3fe6080604052600436106101355760003560e01c8063715018a6116100ab578063a2309ff81161006f578063a2309ff81461034a578063b88d4fde14610360578063c002d23d14610380578063c87b56dd1461039c578063e985e9c5146103bc578063f2fde38b146103dc57600080fd5b8063715018a6146102cf5780638da5cb5b146102e457806395d89b4114610302578063a0712d6814610317578063a22cb4651461032a57600080fd5b806332cb6b0c116100fd57806332cb6b0c1461020b57806342842e0e1461022f57806351cff8d91461024f57806355f804b31461026f5780636352211e1461028f57806370a08231146102af57600080fd5b806301ffc9a71461013a57806306fdde031461016f578063081812fc14610191578063095ea7b3146101c957806323b872dd146101eb575b600080fd5b34801561014657600080fd5b5061015a610155366004611114565b6103fc565b60405190151581526020015b60405180910390f35b34801561017b57600080fd5b5061018461044e565b6040516101669190611181565b34801561019d57600080fd5b506101b16101ac366004611194565b6104e0565b6040516001600160a01b039091168152602001610166565b3480156101d557600080fd5b506101e96101e43660046111c2565b610509565b005b3480156101f757600080fd5b506101e96102063660046111ee565b610518565b34801561021757600080fd5b5061022161271081565b604051908152602001610166565b34801561023b57600080fd5b506101e961024a3660046111ee565b6105a8565b34801561025b57600080fd5b506101e961026a36600461122f565b6105c8565b34801561027b57600080fd5b506101e961028a36600461124c565b610665565b34801561029b57600080fd5b506101b16102aa366004611194565b61067a565b3480156102bb57600080fd5b506102216102ca36600461122f565b610685565b3480156102db57600080fd5b506101e96106cd565b3480156102f057600080fd5b506006546001600160a01b03166101b1565b34801561030e57600080fd5b506101846106e1565b6101e9610325366004611194565b6106f0565b34801561033657600080fd5b506101e96103453660046112be565b61084f565b34801561035657600080fd5b5061022160075481565b34801561036c57600080fd5b506101e961037b366004611312565b61085a565b34801561038c57600080fd5b5061022167016345785d8a000081565b3480156103a857600080fd5b506101846103b7366004611194565b610872565b3480156103c857600080fd5b5061015a6103d73660046113f2565b610929565b3480156103e857600080fd5b506101e96103f736600461122f565b610957565b60006001600160e01b031982166380ac58cd60e01b148061042d57506001600160e01b03198216635b5e139f60e01b145b8061044857506301ffc9a760e01b6001600160e01b03198316145b92915050565b60606000805461045d90611420565b80601f016020809104026020016040519081016040528092919081815260200182805461048990611420565b80156104d65780601f106104ab576101008083540402835291602001916104d6565b820191906000526020600020905b8154815290600101906020018083116104b957829003601f168201915b5050505050905090565b60006104eb82610995565b506000828152600460205260409020546001600160a01b0316610448565b6105148282336109ce565b5050565b6001600160a01b03821661054757604051633250574960e11b8152600060048201526024015b60405180910390fd5b60006105548383336109db565b9050836001600160a01b0316816001600160a01b0316146105a2576040516364283d7b60e01b81526001600160a01b038086166004830152602482018490528216604482015260640161053e565b50505050565b6105c38383836040518060200160405280600081525061085a565b505050565b6105d0610ad4565b6000816001600160a01b03164760405160006040518083038185875af1925050503d806000811461061d576040519150601f19603f3d011682016040523d82523d6000602084013e610622565b606091505b50509050806105145760405162461bcd60e51b815260206004820152600f60248201526e15da5d1a191c985dc819985a5b1959608a1b604482015260640161053e565b61066d610ad4565b60086105c38284836114a0565b600061044882610995565b60006001600160a01b0382166106b1576040516322718ad960e21b81526000600482015260240161053e565b506001600160a01b031660009081526003602052604090205490565b6106d5610ad4565b6106df6000610b01565b565b60606001805461045d90611420565b6000811180156107015750600a8111155b6107405760405162461bcd60e51b815260206004820152601060248201526f09ad2dce840625a626040e0cae440e8f60831b604482015260640161053e565b612710816007546107519190611576565b111561078a5760405162461bcd60e51b815260206004820152600860248201526714dbdb19081bdd5d60c21b604482015260640161053e565b61079c8167016345785d8a0000611589565b3410156107e25760405162461bcd60e51b8152602060048201526014602482015273125b9cdd59999a58da595b9d081c185e5b595b9d60621b604482015260640161053e565b60005b818110156105145760006007600081546107fe906115a0565b9182905550905061080f3382610b53565b604051819033907f30385c845b448a36257a6a1716e6ad2e1bc2cbe333cde1e69fe849ad6511adfe90600090a35080610847816115a0565b9150506107e5565b610514338383610b6d565b610865848484610518565b6105a23385858585610c0c565b6000818152600260205260409020546060906001600160a01b03166108cd5760405162461bcd60e51b81526020600482015260116024820152702737b732bc34b9ba32b73a103a37b5b2b760791b604482015260640161053e565b60006108d7610d37565b905060008151116108f75760405180602001604052806000815250610922565b8061090184610d46565b6040516020016109129291906115b9565b6040516020818303038152906040525b9392505050565b6001600160a01b03918216600090815260056020908152604080832093909416825291909152205460ff1690565b61095f610ad4565b6001600160a01b03811661098957604051631e4fbdf760e01b81526000600482015260240161053e565b61099281610b01565b50565b6000818152600260205260408120546001600160a01b03168061044857604051637e27328960e01b81526004810184905260240161053e565b6105c38383836001610dd9565b6000828152600260205260408120546001600160a01b0390811690831615610a0857610a08818486610edf565b6001600160a01b03811615610a4657610a25600085600080610dd9565b6001600160a01b038116600090815260036020526040902080546000190190555b6001600160a01b03851615610a75576001600160a01b0385166000908152600360205260409020805460010190555b60008481526002602052604080822080546001600160a01b0319166001600160a01b0389811691821790925591518793918516917fddf252ad1be2c89b69c2b068fc378daa952ba7f163c4a11628f55a4df523b3ef91a4949350505050565b6006546001600160a01b031633146106df5760405163118cdaa760e01b815233600482015260240161053e565b600680546001600160a01b038381166001600160a01b0319831681179093556040519116919082907f8be0079c531659141344cd1fd0a4f28419497f9722a3daafe3b4186f6b6457e090600090a35050565b610514828260405180602001604052806000815250610f43565b6001600160a01b038216610b9f57604051630b61174360e31b81526001600160a01b038316600482015260240161053e565b6001600160a01b03838116600081815260056020908152604080832094871680845294825291829020805460ff191686151590811790915591519182527f17307eab39ab6107e8899845ad3d59bd9653f200f220920489ca2b5937696c31910160405180910390a3505050565b6001600160a01b0383163b15610d3057604051630a85bd0160e11b81526001600160a01b0384169063150b7a0290610c4e9088908890879087906004016115f8565b6020604051808303816000875af1925050508015610c89575060408051601f3d908101601f19168201909252610c8691810190611635565b60015b610cf2573d808015610cb7576040519150601f19603f3d011682016040523d82523d6000602084013e610cbc565b606091505b508051600003610cea57604051633250574960e11b81526001600160a01b038516600482015260240161053e565b805160208201fd5b6001600160e01b03198116630a85bd0160e11b14610d2e57604051633250574960e11b81526001600160a01b038516600482015260240161053e565b505b5050505050565b60606008805461045d90611420565b60606000610d5383610f5b565b600101905060008167ffffffffffffffff811115610d7357610d736112fc565b6040519080825280601f01601f191660200182016040528015610d9d576020820181803683370190505b5090508181016020015b600019016f181899199a1a9b1b9c1cb0b131b232b360811b600a86061a8153600a8504945084610da757509392505050565b8080610ded57506001600160a01b03821615155b15610eaf576000610dfd84610995565b90506001600160a01b03831615801590610e295750826001600160a01b0316816001600160a01b031614155b8015610e3c5750610e3a8184610929565b155b15610e655760405163a9fbf51f60e01b81526001600160a01b038416600482015260240161053e565b8115610ead5783856001600160a01b0316826001600160a01b03167f8c5be1e5ebec7d5bd14f71427d1e84f3dd0314c0f7b2291e5b200ac8c7c3b92560405160405180910390a45b505b5050600090815260046020526040902080546001600160a01b0319166001600160a01b0392909216919091179055565b610eea838383611033565b6105c3576001600160a01b038316610f1857604051637e27328960e01b81526004810182905260240161053e565b60405163177e802f60e01b81526001600160a01b03831660048201526024810182905260440161053e565b610f4d8383611099565b6105c3336000858585610c0c565b60008072184f03e93ff9f4daa797ed6e38ed64bf6a1f0160401b8310610f9a5772184f03e93ff9f4daa797ed6e38ed64bf6a1f0160401b830492506040015b6d04ee2d6d415b85acef81000000008310610fc6576d04ee2d6d415b85acef8100000000830492506020015b662386f26fc100008310610fe457662386f26fc10000830492506010015b6305f5e1008310610ffc576305f5e100830492506008015b612710831061101057612710830492506004015b60648310611022576064830492506002015b600a83106104485760010192915050565b60006001600160a01b038316158015906110915750826001600160a01b0316846001600160a01b0316148061106d575061106d8484610929565b8061109157506000828152600460205260409020546001600160a01b038481169116145b949350505050565b6001600160a01b0382166110c357604051633250574960e11b81526000600482015260240161053e565b60006110d1838360006109db565b90506001600160a01b038116156105c3576040516339e3563760e11b81526000600482015260240161053e565b6001600160e01b03198116811461099257600080fd5b60006020828403121561112657600080fd5b8135610922816110fe565b60005b8381101561114c578181015183820152602001611134565b50506000910152565b6000815180845261116d816020860160208601611131565b601f01601f19169290920160200192915050565b6020815260006109226020830184611155565b6000602082840312156111a657600080fd5b5035919050565b6001600160a01b038116811461099257600080fd5b600080604083850312156111d557600080fd5b82356111e0816111ad565b946020939093013593505050565b60008060006060848603121561120357600080fd5b833561120e816111ad565b9250602084013561121e816111ad565b929592945050506040919091013590565b60006020828403121561124157600080fd5b8135610922816111ad565b6000806020838503121561125f57600080fd5b823567ffffffffffffffff8082111561127757600080fd5b818501915085601f83011261128b57600080fd5b81358181111561129a57600080fd5b8660208285010111156112ac57600080fd5b60209290920196919550909350505050565b600080604083850312156112d157600080fd5b82356112dc816111ad565b9150602083013580151581146112f157600080fd5b809150509250929050565b634e487b7160e01b600052604160045260246000fd5b6000806000806080858703121561132857600080fd5b8435611333816111ad565b93506020850135611343816111ad565b925060408501359150606085013567ffffffffffffffff8082111561136757600080fd5b818701915087601f83011261137b57600080fd5b81358181111561138d5761138d6112fc565b604051601f8201601f19908116603f011681019083821181831017156113b5576113b56112fc565b816040528281528a60208487010111156113ce57600080fd5b82602086016020830137600060208483010152809550505050505092959194509250565b6000806040838503121561140557600080fd5b8235611410816111ad565b915060208301356112f1816111ad565b600181811c9082168061143457607f821691505b60208210810361145457634e487b7160e01b600052602260045260246000fd5b50919050565b601f8211156105c357600081815260208120601f850160051c810160208610156114815750805b601f850160051c820191505b81811015610d2e5782815560010161148d565b67ffffffffffffffff8311156114b8576114b86112fc565b6114cc836114c68354611420565b8361145a565b6000601f84116001811461150057600085156114e85750838201355b600019600387901b1c1916600186901b178355610d30565b600083815260209020601f19861690835b828110156115315786850135825560209485019460019092019101611511565b508682101561154e5760001960f88860031b161c19848701351681555b505060018560011b0183555050505050565b634e487b7160e01b600052601160045260246000fd5b8082018082111561044857610448611560565b808202811582820484141761044857610448611560565b6000600182016115b2576115b2611560565b5060010190565b600083516115cb818460208801611131565b8351908301906115df818360208801611131565b64173539b7b760d91b9101908152600501949350505050565b6001600160a01b038581168252841660208201526040810183905260806060820181905260009061162b90830184611155565b9695505050505050565b60006020828403121561164757600080fd5b8151610922816110fe56fea2646970667358221220bf53c62681e2eaea602af79d6210a90bf2dadb0b3bc2f7ced06b92e38184acd264736f6c63430008140033",
  "linkReferences": {},
  "deployedLinkReferences": {}
}